:100000000C9434000C943E000C943E000C943E0082
:100010000C943E000C943E000C943E000C943E0068
:100020000C943E000C943E000C943E000C943E0058
:100030000C943E000C943E000C943E000C943E0048
:100040000C943E000C943E000C943E000C943E0038
:100050000C943E000C943E000C943E000C943E0028
:100060000C943E000C943E0011241FBECFEFD8E04C
:10007000DEBFCDBF0E9440000C9464000C940000D1
:1000800080EF84B98CE08AB951E083B183B143B188
:1000900093B1869581708527880F880F8BB93BB106
:1000A00081E0642F647042FF80E021E0611120E074
:1000B000822793FB992790F995278927880F880F26
:0C00C000880F832B8BB9E1CFF894FFCFA1
:00000001FF
