:100000000C9434000C943E000C943E000C943E0082
:100010000C943E000C943E000C943E000C943E0068
:100020000C943E000C943E000C943E000C943E0058
:100030000C943E000C943E000C943E000C943E0048
:100040000C943E000C943E000C943E000C943E0038
:100050000C943E000C943E000C943E000C943E0028
:100060000C943E000C943E0011241FBECFEFD8E04C
:10007000DEBFCDBF0E9440000C945D000C940000D8
:1000800080EF84B98CE08AB933B123B183B193B1E5
:100090003170269521702327220F220F2BB92BB107
:1000A00082FB882780F993FB992790F98927880F8D
:0E00B000880F880F822B8BB9E7CFF894FFCF13
:00000001FF
