:100000000C9434000C943E000C943E000C943E0082
:100010000C943E000C943E000C943E000C943E0068
:100020000C943E000C943E000C943E000C943E0058
:100030000C943E000C943E000C943E000C943E0048
:100040000C943E000C943E000C943E000C943E0038
:100050000C943E000C943E000C943E000C943E0028
:100060000C943E000C943E0011241FBECFEFD8E04C
:10007000DEBFCDBF0E9440000C9462000C940000D3
:1000800080EF84B98CE08AB951E033B123B183B1F8
:1000900093B121FB442740F9232F217024272527E2
:1000A000220F220F2BB92BB182FB882780F993FBFB
:1000B000992790F989278527880F880F880F822B29
:0800C0008BB9E3CFF894FFCFE8
:00000001FF
